{
	"celoWallet.sol": {
		"CrossBorderPayments": {
			"abi": [
				{
					"anonymous": false,
					"inputs": [
						{
							"indexed": false,
							"internalType": "uint256",
							"name": "transactionId",
							"type": "uint256"
						},
						{
							"indexed": false,
							"internalType": "address",
							"name": "sender",
							"type": "address"
						},
						{
							"indexed": false,
							"internalType": "address payable",
							"name": "recipient",
							"type": "address"
						},
						{
							"indexed": false,
							"internalType": "uint256",
							"name": "amount",
							"type": "uint256"
						},
						{
							"indexed": false,
							"internalType": "bool",
							"name": "isRemittance",
							"type": "bool"
						}
					],
					"name": "PaymentCompleted",
					"type": "event"
				},
				{
					"anonymous": false,
					"inputs": [
						{
							"indexed": false,
							"internalType": "uint256",
							"name": "transactionId",
							"type": "uint256"
						},
						{
							"indexed": false,
							"internalType": "address",
							"name": "sender",
							"type": "address"
						},
						{
							"indexed": false,
							"internalType": "address payable",
							"name": "recipient",
							"type": "address"
						},
						{
							"indexed": false,
							"internalType": "uint256",
							"name": "amount",
							"type": "uint256"
						},
						{
							"indexed": false,
							"internalType": "bool",
							"name": "isRemittance",
							"type": "bool"
						}
					],
					"name": "PaymentReceived",
					"type": "event"
				},
				{
					"anonymous": false,
					"inputs": [
						{
							"indexed": false,
							"internalType": "uint256",
							"name": "transactionId",
							"type": "uint256"
						},
						{
							"indexed": false,
							"internalType": "address",
							"name": "sender",
							"type": "address"
						},
						{
							"indexed": false,
							"internalType": "address payable",
							"name": "recipient",
							"type": "address"
						},
						{
							"indexed": false,
							"internalType": "uint256",
							"name": "amount",
							"type": "uint256"
						},
						{
							"indexed": false,
							"internalType": "bool",
							"name": "isRemittance",
							"type": "bool"
						}
					],
					"name": "PaymentSent",
					"type": "event"
				},
				{
					"inputs": [
						{
							"internalType": "uint256",
							"name": "_transactionId",
							"type": "uint256"
						}
					],
					"name": "receivePayment",
					"outputs": [],
					"stateMutability": "nonpayable",
					"type": "function"
				},
				{
					"inputs": [
						{
							"internalType": "address payable",
							"name": "_recipient",
							"type": "address"
						},
						{
							"internalType": "bool",
							"name": "_isRemittance",
							"type": "bool"
						}
					],
					"name": "sendPayment",
					"outputs": [],
					"stateMutability": "payable",
					"type": "function"
				},
				{
					"inputs": [],
					"name": "transactionCount",
					"outputs": [
						{
							"internalType": "uint256",
							"name": "",
							"type": "uint256"
						}
					],
					"stateMutability": "view",
					"type": "function"
				},
				{
					"inputs": [
						{
							"internalType": "uint256",
							"name": "",
							"type": "uint256"
						}
					],
					"name": "transactions",
					"outputs": [
						{
							"internalType": "address",
							"name": "sender",
							"type": "address"
						},
						{
							"internalType": "address payable",
							"name": "recipient",
							"type": "address"
						},
						{
							"internalType": "uint256",
							"name": "amount",
							"type": "uint256"
						},
						{
							"internalType": "bool",
							"name": "isRemittance",
							"type": "bool"
						},
						{
							"internalType": "bool",
							"name": "isCompleted",
							"type": "bool"
						}
					],
					"stateMutability": "view",
					"type": "function"
				}
			],
			"devdoc": {
				"kind": "dev",
				"methods": {},
				"version": 1
			},
			"evm": {
				"assembly": "    /* \"celoWallet.sol\":60:1961  contract CrossBorderPayments {... */\n  mstore(0x40, 0x80)\n  callvalue\n  dup1\n  iszero\n  tag_1\n  jumpi\n  0x00\n  dup1\n  revert\ntag_1:\n  pop\n  dataSize(sub_0)\n  dup1\n  dataOffset(sub_0)\n  0x00\n  codecopy\n  0x00\n  return\nstop\n\nsub_0: assembly {\n        /* \"celoWallet.sol\":60:1961  contract CrossBorderPayments {... */\n      mstore(0x40, 0x80)\n      jumpi(tag_1, lt(calldatasize, 0x04))\n      shr(0xe0, calldataload(0x00))\n      dup1\n      0x9ace38c2\n      eq\n      tag_2\n      jumpi\n      dup1\n      0xb77bf600\n      eq\n      tag_3\n      jumpi\n      dup1\n      0xd13bba1d\n      eq\n      tag_4\n      jumpi\n      dup1\n      0xe2eab483\n      eq\n      tag_5\n      jumpi\n    tag_1:\n      0x00\n      dup1\n      revert\n        /* \"celoWallet.sol\":309:357  mapping(uint => Transaction) public transactions */\n    tag_2:\n      callvalue\n      dup1\n      iszero\n      tag_6\n      jumpi\n      0x00\n      dup1\n      revert\n    tag_6:\n      pop\n      tag_7\n      0x04\n      dup1\n      calldatasize\n      sub\n      dup2\n      add\n      swap1\n      tag_8\n      swap2\n      swap1\n      tag_9\n      jump\t// in\n    tag_8:\n      tag_10\n      jump\t// in\n    tag_7:\n      mload(0x40)\n      tag_11\n      swap6\n      swap5\n      swap4\n      swap3\n      swap2\n      swap1\n      tag_12\n      jump\t// in\n    tag_11:\n      mload(0x40)\n      dup1\n      swap2\n      sub\n      swap1\n      return\n        /* \"celoWallet.sol\":364:392  uint public transactionCount */\n    tag_3:\n      callvalue\n      dup1\n      iszero\n      tag_13\n      jumpi\n      0x00\n      dup1\n      revert\n    tag_13:\n      pop\n      tag_14\n      tag_15\n      jump\t// in\n    tag_14:\n      mload(0x40)\n      tag_16\n      swap2\n      swap1\n      tag_17\n      jump\t// in\n    tag_16:\n      mload(0x40)\n      dup1\n      swap2\n      sub\n      swap1\n      return\n        /* \"celoWallet.sol\":769:1200  function sendPayment(address payable _recipient, bool _isRemittance) external payable {... */\n    tag_4:\n      tag_18\n      0x04\n      dup1\n      calldatasize\n      sub\n      dup2\n      add\n      swap1\n      tag_19\n      swap2\n      swap1\n      tag_20\n      jump\t// in\n    tag_19:\n      tag_21\n      jump\t// in\n    tag_18:\n      stop\n        /* \"celoWallet.sol\":1208:1958  function receivePayment(uint _transactionId) external {... */\n    tag_5:\n      callvalue\n      dup1\n      iszero\n      tag_22\n      jumpi\n      0x00\n      dup1\n      revert\n    tag_22:\n      pop\n      tag_23\n      0x04\n      dup1\n      calldatasize\n      sub\n      dup2\n      add\n      swap1\n      tag_24\n      swap2\n      swap1\n      tag_9\n      jump\t// in\n    tag_24:\n      tag_25\n      jump\t// in\n    tag_23:\n      stop\n        /* \"celoWallet.sol\":309:357  mapping(uint => Transaction) public transactions */\n    tag_10:\n      mstore(0x20, 0x00)\n      dup1\n      0x00\n      mstore\n      keccak256(0x00, 0x40)\n      0x00\n      swap2\n      pop\n      swap1\n      pop\n      dup1\n      0x00\n      add\n      0x00\n      swap1\n      sload\n      swap1\n      0x0100\n      exp\n      swap1\n      div\n      0xffffffffffffffffffffffffffffffffffffffff\n      and\n      swap1\n      dup1\n      0x01\n      add\n      0x00\n      swap1\n      sload\n      swap1\n      0x0100\n      exp\n      swap1\n      div\n      0xffffffffffffffffffffffffffffffffffffffff\n      and\n      swap1\n      dup1\n      0x02\n      add\n      sload\n      swap1\n      dup1\n      0x03\n      add\n      0x00\n      swap1\n      sload\n      swap1\n      0x0100\n      exp\n      swap1\n      div\n      0xff\n      and\n      swap1\n      dup1\n      0x03\n      add\n      0x01\n      swap1\n      sload\n      swap1\n      0x0100\n      exp\n      swap1\n      div\n      0xff\n      and\n      swap1\n      pop\n      dup6\n      jump\t// out\n        /* \"celoWallet.sol\":364:392  uint public transactionCount */\n    tag_15:\n      sload(0x01)\n      dup2\n      jump\t// out\n        /* \"celoWallet.sol\":769:1200  function sendPayment(address payable _recipient, bool _isRemittance) external payable {... */\n    tag_21:\n        /* \"celoWallet.sol\":886:887  0 */\n      0x00\n        /* \"celoWallet.sol\":874:883  msg.value */\n      callvalue\n        /* \"celoWallet.sol\":874:887  msg.value > 0 */\n      gt\n        /* \"celoWallet.sol\":866:914  require(msg.value > 0, \"Invalid payment amount\") */\n      tag_27\n      jumpi\n      mload(0x40)\n      0x08c379a000000000000000000000000000000000000000000000000000000000\n      dup2\n      mstore\n      0x04\n      add\n      tag_28\n      swap1\n      tag_29\n      jump\t// in\n    tag_28:\n      mload(0x40)\n      dup1\n      swap2\n      sub\n      swap1\n      revert\n    tag_27:\n        /* \"celoWallet.sol\":925:943  uint transactionId */\n      0x00\n        /* \"celoWallet.sol\":946:962  transactionCount */\n      sload(0x01)\n        /* \"celoWallet.sol\":925:962  uint transactionId = transactionCount */\n      swap1\n      pop\n        /* \"celoWallet.sol\":1003:1071  Transaction(msg.sender, _recipient, msg.value, _isRemittance, false) */\n      mload(0x40)\n      dup1\n      0xa0\n      add\n      0x40\n      mstore\n      dup1\n        /* \"celoWallet.sol\":1015:1025  msg.sender */\n      caller\n        /* \"celoWallet.sol\":1003:1071  Transaction(msg.sender, _recipient, msg.value, _isRemittance, false) */\n      0xffffffffffffffffffffffffffffffffffffffff\n      and\n      dup2\n      mstore\n      0x20\n      add\n        /* \"celoWallet.sol\":1027:1037  _recipient */\n      dup5\n        /* \"celoWallet.sol\":1003:1071  Transaction(msg.sender, _recipient, msg.value, _isRemittance, false) */\n      0xffffffffffffffffffffffffffffffffffffffff\n      and\n      dup2\n      mstore\n      0x20\n      add\n        /* \"celoWallet.sol\":1039:1048  msg.value */\n      callvalue\n        /* \"celoWallet.sol\":1003:1071  Transaction(msg.sender, _recipient, msg.value, _isRemittance, false) */\n      dup2\n      mstore\n      0x20\n      add\n        /* \"celoWallet.sol\":1050:1063  _isRemittance */\n      dup4\n        /* \"celoWallet.sol\":1003:1071  Transaction(msg.sender, _recipient, msg.value, _isRemittance, false) */\n      iszero\n      iszero\n      dup2\n      mstore\n      0x20\n      add\n        /* \"celoWallet.sol\":1065:1070  false */\n      0x00\n        /* \"celoWallet.sol\":1003:1071  Transaction(msg.sender, _recipient, msg.value, _isRemittance, false) */\n      iszero\n      iszero\n      dup2\n      mstore\n      pop\n        /* \"celoWallet.sol\":973:985  transactions */\n      0x00\n        /* \"celoWallet.sol\":973:1000  transactions[transactionId] */\n      dup1\n        /* \"celoWallet.sol\":986:999  transactionId */\n      dup4\n        /* \"celoWallet.sol\":973:1000  transactions[transactionId] */\n      dup2\n      mstore\n      0x20\n      add\n      swap1\n      dup2\n      mstore\n      0x20\n      add\n      0x00\n      keccak256\n        /* \"celoWallet.sol\":973:1071  transactions[transactionId] = Transaction(msg.sender, _recipient, msg.value, _isRemittance, false) */\n      0x00\n      dup3\n      add\n      mload\n      dup2\n      0x00\n      add\n      exp(0x0100, 0x00)\n      dup2\n      sload\n      dup2\n      0xffffffffffffffffffffffffffffffffffffffff\n      mul\n      not\n      and\n      swap1\n      dup4\n      0xffffffffffffffffffffffffffffffffffffffff\n      and\n      mul\n      or\n      swap1\n      sstore\n      pop\n      0x20\n      dup3\n      add\n      mload\n      dup2\n      0x01\n      add\n      exp(0x0100, 0x00)\n      dup2\n      sload\n      dup2\n      0xffffffffffffffffffffffffffffffffffffffff\n      mul\n      not\n      and\n      swap1\n      dup4\n      0xffffffffffffffffffffffffffffffffffffffff\n      and\n      mul\n      or\n      swap1\n      sstore\n      pop\n      0x40\n      dup3\n      add\n      mload\n      dup2\n      0x02\n      add\n      sstore\n      0x60\n      dup3\n      add\n      mload\n      dup2\n      0x03\n      add\n      exp(0x0100, 0x00)\n      dup2\n      sload\n      dup2\n      0xff\n      mul\n      not\n      and\n      swap1\n      dup4\n      iszero\n      iszero\n      mul\n      or\n      swap1\n      sstore\n      pop\n      0x80\n      dup3\n      add\n      mload\n      dup2\n      0x03\n      add\n      exp(0x0100, 0x01)\n      dup2\n      sload\n      dup2\n      0xff\n      mul\n      not\n      and\n      swap1\n      dup4\n      iszero\n      iszero\n      mul\n      or\n      swap1\n      sstore\n      pop\n      swap1\n      pop\n      pop\n        /* \"celoWallet.sol\":1082:1098  transactionCount */\n      0x01\n      0x00\n        /* \"celoWallet.sol\":1082:1100  transactionCount++ */\n      dup2\n      sload\n      dup1\n      swap3\n      swap2\n      swap1\n      tag_30\n      swap1\n      tag_31\n      jump\t// in\n    tag_30:\n      swap2\n      swap1\n      pop\n      sstore\n      pop\n        /* \"celoWallet.sol\":1116:1192  PaymentSent(transactionId, msg.sender, _recipient, msg.value, _isRemittance) */\n      0x470337c83a5a7bc73382b0f7fcf0471d7c0d2dec1c53d8efc65fabbcccd1f791\n        /* \"celoWallet.sol\":1128:1141  transactionId */\n      dup2\n        /* \"celoWallet.sol\":1143:1153  msg.sender */\n      caller\n        /* \"celoWallet.sol\":1155:1165  _recipient */\n      dup6\n        /* \"celoWallet.sol\":1167:1176  msg.value */\n      callvalue\n        /* \"celoWallet.sol\":1178:1191  _isRemittance */\n      dup7\n        /* \"celoWallet.sol\":1116:1192  PaymentSent(transactionId, msg.sender, _recipient, msg.value, _isRemittance) */\n      mload(0x40)\n      tag_32\n      swap6\n      swap5\n      swap4\n      swap3\n      swap2\n      swap1\n      tag_33\n      jump\t// in\n    tag_32:\n      mload(0x40)\n      dup1\n      swap2\n      sub\n      swap1\n      log1\n        /* \"celoWallet.sol\":855:1200  {... */\n      pop\n        /* \"celoWallet.sol\":769:1200  function sendPayment(address payable _recipient, bool _isRemittance) external payable {... */\n      pop\n      pop\n      jump\t// out\n        /* \"celoWallet.sol\":1208:1958  function receivePayment(uint _transactionId) external {... */\n    tag_25:\n        /* \"celoWallet.sol\":1298:1314  transactionCount */\n      sload(0x01)\n        /* \"celoWallet.sol\":1281:1295  _transactionId */\n      dup2\n        /* \"celoWallet.sol\":1281:1314  _transactionId < transactionCount */\n      lt\n        /* \"celoWallet.sol\":1273:1341  require(_transactionId < transactionCount, \"Invalid transaction ID\") */\n      tag_35\n      jumpi\n      mload(0x40)\n      0x08c379a000000000000000000000000000000000000000000000000000000000\n      dup2\n      mstore\n      0x04\n      add\n      tag_36\n      swap1\n      tag_37\n      jump\t// in\n    tag_36:\n      mload(0x40)\n      dup1\n      swap2\n      sub\n      swap1\n      revert\n    tag_35:\n        /* \"celoWallet.sol\":1352:1383  Transaction storage transaction */\n      0x00\n        /* \"celoWallet.sol\":1386:1398  transactions */\n      dup1\n        /* \"celoWallet.sol\":1386:1414  transactions[_transactionId] */\n      0x00\n        /* \"celoWallet.sol\":1399:1413  _transactionId */\n      dup4\n        /* \"celoWallet.sol\":1386:1414  transactions[_transactionId] */\n      dup2\n      mstore\n      0x20\n      add\n      swap1\n      dup2\n      mstore\n      0x20\n      add\n      0x00\n      keccak256\n        /* \"celoWallet.sol\":1352:1414  Transaction storage transaction = transactions[_transactionId] */\n      swap1\n      pop\n        /* \"celoWallet.sol\":1434:1445  transaction */\n      dup1\n        /* \"celoWallet.sol\":1434:1457  transaction.isCompleted */\n      0x03\n      add\n      0x01\n      swap1\n      sload\n      swap1\n      0x0100\n      exp\n      swap1\n      div\n      0xff\n      and\n        /* \"celoWallet.sol\":1433:1457  !transaction.isCompleted */\n      iszero\n        /* \"celoWallet.sol\":1425:1494  require(!transaction.isCompleted, \"Transaction is already completed\") */\n      tag_38\n      jumpi\n      mload(0x40)\n      0x08c379a000000000000000000000000000000000000000000000000000000000\n      dup2\n      mstore\n      0x04\n      add\n      tag_39\n      swap1\n      tag_40\n      jump\t// in\n    tag_39:\n      mload(0x40)\n      dup1\n      swap2\n      sub\n      swap1\n      revert\n    tag_38:\n        /* \"celoWallet.sol\":1538:1548  msg.sender */\n      caller\n        /* \"celoWallet.sol\":1513:1548  transaction.recipient == msg.sender */\n      0xffffffffffffffffffffffffffffffffffffffff\n      and\n        /* \"celoWallet.sol\":1513:1524  transaction */\n      dup2\n        /* \"celoWallet.sol\":1513:1534  transaction.recipient */\n      0x01\n      add\n      0x00\n      swap1\n      sload\n      swap1\n      0x0100\n      exp\n      swap1\n      div\n      0xffffffffffffffffffffffffffffffffffffffff\n      and\n        /* \"celoWallet.sol\":1513:1548  transaction.recipient == msg.sender */\n      0xffffffffffffffffffffffffffffffffffffffff\n      and\n      eq\n        /* \"celoWallet.sol\":1505:1575  require(transaction.recipient == msg.sender, \"Unauthorized recipient\") */\n      tag_41\n      jumpi\n      mload(0x40)\n      0x08c379a000000000000000000000000000000000000000000000000000000000\n      dup2\n      mstore\n      0x04\n      add\n      tag_42\n      swap1\n      tag_43\n      jump\t// in\n    tag_42:\n      mload(0x40)\n      dup1\n      swap2\n      sub\n      swap1\n      revert\n    tag_41:\n        /* \"celoWallet.sol\":1586:1597  transaction */\n      dup1\n        /* \"celoWallet.sol\":1586:1607  transaction.recipient */\n      0x01\n      add\n      0x00\n      swap1\n      sload\n      swap1\n      0x0100\n      exp\n      swap1\n      div\n      0xffffffffffffffffffffffffffffffffffffffff\n      and\n        /* \"celoWallet.sol\":1586:1616  transaction.recipient.transfer */\n      0xffffffffffffffffffffffffffffffffffffffff\n      and\n        /* \"celoWallet.sol\":1586:1636  transaction.recipient.transfer(transaction.amount) */\n      0x08fc\n        /* \"celoWallet.sol\":1617:1628  transaction */\n      dup3\n        /* \"celoWallet.sol\":1617:1635  transaction.amount */\n      0x02\n      add\n      sload\n        /* \"celoWallet.sol\":1586:1636  transaction.recipient.transfer(transaction.amount) */\n      swap1\n      dup2\n      iszero\n      mul\n      swap1\n      mload(0x40)\n      0x00\n      mload(0x40)\n      dup1\n      dup4\n      sub\n      dup2\n      dup6\n      dup9\n      dup9\n      call\n      swap4\n      pop\n      pop\n      pop\n      pop\n      iszero\n      dup1\n      iszero\n      tag_45\n      jumpi\n      returndatasize\n      0x00\n      dup1\n      returndatacopy\n      revert(0x00, returndatasize)\n    tag_45:\n      pop\n        /* \"celoWallet.sol\":1673:1677  true */\n      0x01\n        /* \"celoWallet.sol\":1647:1658  transaction */\n      dup2\n        /* \"celoWallet.sol\":1647:1670  transaction.isCompleted */\n      0x03\n      add\n      0x01\n        /* \"celoWallet.sol\":1647:1677  transaction.isCompleted = true */\n      0x0100\n      exp\n      dup2\n      sload\n      dup2\n      0xff\n      mul\n      not\n      and\n      swap1\n      dup4\n      iszero\n      iszero\n      mul\n      or\n      swap1\n      sstore\n      pop\n        /* \"celoWallet.sol\":1693:1813  PaymentReceived(_transactionId, transaction.sender, transaction.recipient, transaction.amount, transaction.isRemittance) */\n      0xcbce0eeecc13f87b90aa42420b2f9c79991f5d9fe86c0c4baba80b029f63aa09\n        /* \"celoWallet.sol\":1709:1723  _transactionId */\n      dup3\n        /* \"celoWallet.sol\":1725:1736  transaction */\n      dup3\n        /* \"celoWallet.sol\":1725:1743  transaction.sender */\n      0x00\n      add\n      0x00\n      swap1\n      sload\n      swap1\n      0x0100\n      exp\n      swap1\n      div\n      0xffffffffffffffffffffffffffffffffffffffff\n      and\n        /* \"celoWallet.sol\":1745:1756  transaction */\n      dup4\n        /* \"celoWallet.sol\":1745:1766  transaction.recipient */\n      0x01\n      add\n      0x00\n      swap1\n      sload\n      swap1\n      0x0100\n      exp\n      swap1\n      div\n      0xffffffffffffffffffffffffffffffffffffffff\n      and\n        /* \"celoWallet.sol\":1768:1779  transaction */\n      dup5\n        /* \"celoWallet.sol\":1768:1786  transaction.amount */\n      0x02\n      add\n      sload\n        /* \"celoWallet.sol\":1788:1799  transaction */\n      dup6\n        /* \"celoWallet.sol\":1788:1812  transaction.isRemittance */\n      0x03\n      add\n      0x00\n      swap1\n      sload\n      swap1\n      0x0100\n      exp\n      swap1\n      div\n      0xff\n      and\n        /* \"celoWallet.sol\":1693:1813  PaymentReceived(_transactionId, transaction.sender, transaction.recipient, transaction.amount, transaction.isRemittance) */\n      mload(0x40)\n      tag_46\n      swap6\n      swap5\n      swap4\n      swap3\n      swap2\n      swap1\n      tag_33\n      jump\t// in\n    tag_46:\n      mload(0x40)\n      dup1\n      swap2\n      sub\n      swap1\n      log1\n        /* \"celoWallet.sol\":1829:1950  PaymentCompleted(_transactionId, transaction.sender, transaction.recipient, transaction.amount, transaction.isRemittance) */\n      0x5dc0d45a3ae3c757fc98986fb64cd937b29c3ab5301c760fb9474a480376070f\n        /* \"celoWallet.sol\":1846:1860  _transactionId */\n      dup3\n        /* \"celoWallet.sol\":1862:1873  transaction */\n      dup3\n        /* \"celoWallet.sol\":1862:1880  transaction.sender */\n      0x00\n      add\n      0x00\n      swap1\n      sload\n      swap1\n      0x0100\n      exp\n      swap1\n      div\n      0xffffffffffffffffffffffffffffffffffffffff\n      and\n        /* \"celoWallet.sol\":1882:1893  transaction */\n      dup4\n        /* \"celoWallet.sol\":1882:1903  transaction.recipient */\n      0x01\n      add\n      0x00\n      swap1\n      sload\n      swap1\n      0x0100\n      exp\n      swap1\n      div\n      0xffffffffffffffffffffffffffffffffffffffff\n      and\n        /* \"celoWallet.sol\":1905:1916  transaction */\n      dup5\n        /* \"celoWallet.sol\":1905:1923  transaction.amount */\n      0x02\n      add\n      sload\n        /* \"celoWallet.sol\":1925:1936  transaction */\n      dup6\n        /* \"celoWallet.sol\":1925:1949  transaction.isRemittance */\n      0x03\n      add\n      0x00\n      swap1\n      sload\n      swap1\n      0x0100\n      exp\n      swap1\n      div\n      0xff\n      and\n        /* \"celoWallet.sol\":1829:1950  PaymentCompleted(_transactionId, transaction.sender, transaction.recipient, transaction.amount, transaction.isRemittance) */\n      mload(0x40)\n      tag_47\n      swap6\n      swap5\n      swap4\n      swap3\n      swap2\n      swap1\n      tag_33\n      jump\t// in\n    tag_47:\n      mload(0x40)\n      dup1\n      swap2\n      sub\n      swap1\n      log1\n        /* \"celoWallet.sol\":1262:1958  {... */\n      pop\n        /* \"celoWallet.sol\":1208:1958  function receivePayment(uint _transactionId) external {... */\n      pop\n      jump\t// out\n        /* \"#utility.yul\":88:205   */\n    tag_49:\n        /* \"#utility.yul\":197:198   */\n      0x00\n        /* \"#utility.yul\":194:195   */\n      dup1\n        /* \"#utility.yul\":187:199   */\n      revert\n        /* \"#utility.yul\":334:411   */\n    tag_51:\n        /* \"#utility.yul\":371:378   */\n      0x00\n        /* \"#utility.yul\":400:405   */\n      dup2\n        /* \"#utility.yul\":389:405   */\n      swap1\n      pop\n        /* \"#utility.yul\":334:411   */\n      swap2\n      swap1\n      pop\n      jump\t// out\n        /* \"#utility.yul\":417:539   */\n    tag_52:\n        /* \"#utility.yul\":490:514   */\n      tag_82\n        /* \"#utility.yul\":508:513   */\n      dup2\n        /* \"#utility.yul\":490:514   */\n      tag_51\n      jump\t// in\n    tag_82:\n        /* \"#utility.yul\":483:488   */\n      dup2\n        /* \"#utility.yul\":480:515   */\n      eq\n        /* \"#utility.yul\":470:533   */\n      tag_83\n      jumpi\n        /* \"#utility.yul\":529:530   */\n      0x00\n        /* \"#utility.yul\":526:527   */\n      dup1\n        /* \"#utility.yul\":519:531   */\n      revert\n        /* \"#utility.yul\":470:533   */\n    tag_83:\n        /* \"#utility.yul\":417:539   */\n      pop\n      jump\t// out\n        /* \"#utility.yul\":545:684   */\n    tag_53:\n        /* \"#utility.yul\":591:596   */\n      0x00\n        /* \"#utility.yul\":629:635   */\n      dup2\n        /* \"#utility.yul\":616:636   */\n      calldataload\n        /* \"#utility.yul\":607:636   */\n      swap1\n      pop\n        /* \"#utility.yul\":645:678   */\n      tag_85\n        /* \"#utility.yul\":672:677   */\n      dup2\n        /* \"#utility.yul\":645:678   */\n      tag_52\n      jump\t// in\n    tag_85:\n        /* \"#utility.yul\":545:684   */\n      swap3\n      swap2\n      pop\n      pop\n      jump\t// out\n        /* \"#utility.yul\":690:1019   */\n    tag_9:\n        /* \"#utility.yul\":749:755   */\n      0x00\n        /* \"#utility.yul\":798:800   */\n      0x20\n        /* \"#utility.yul\":786:795   */\n      dup3\n        /* \"#utility.yul\":777:784   */\n      dup5\n        /* \"#utility.yul\":773:796   */\n      sub\n        /* \"#utility.yul\":769:801   */\n      slt\n        /* \"#utility.yul\":766:885   */\n      iszero\n      tag_87\n      jumpi\n        /* \"#utility.yul\":804:883   */\n      tag_88\n      tag_49\n      jump\t// in\n    tag_88:\n        /* \"#utility.yul\":766:885   */\n    tag_87:\n        /* \"#utility.yul\":924:925   */\n      0x00\n        /* \"#utility.yul\":949:1002   */\n      tag_89\n        /* \"#utility.yul\":994:1001   */\n      dup5\n        /* \"#utility.yul\":985:991   */\n      dup3\n        /* \"#utility.yul\":974:983   */\n      dup6\n        /* \"#utility.yul\":970:992   */\n      add\n        /* \"#utility.yul\":949:1002   */\n      tag_53\n      jump\t// in\n    tag_89:\n        /* \"#utility.yul\":939:1002   */\n      swap2\n      pop\n        /* \"#utility.yul\":895:1012   */\n      pop\n        /* \"#utility.yul\":690:1019   */\n      swap3\n      swap2\n      pop\n      pop\n      jump\t// out\n        /* \"#utility.yul\":1025:1151   */\n    tag_54:\n        /* \"#utility.yul\":1062:1069   */\n      0x00\n        /* \"#utility.yul\":1102:1144   */\n      0xffffffffffffffffffffffffffffffffffffffff\n        /* \"#utility.yul\":1095:1100   */\n      dup3\n        /* \"#utility.yul\":1091:1145   */\n      and\n        /* \"#utility.yul\":1080:1145   */\n      swap1\n      pop\n        /* \"#utility.yul\":1025:1151   */\n      swap2\n      swap1\n      pop\n      jump\t// out\n        /* \"#utility.yul\":1157:1253   */\n    tag_55:\n        /* \"#utility.yul\":1194:1201   */\n      0x00\n        /* \"#utility.yul\":1223:1247   */\n      tag_92\n        /* \"#utility.yul\":1241:1246   */\n      dup3\n        /* \"#utility.yul\":1223:1247   */\n      tag_54\n      jump\t// in\n    tag_92:\n        /* \"#utility.yul\":1212:1247   */\n      swap1\n      pop\n        /* \"#utility.yul\":1157:1253   */\n      swap2\n      swap1\n      pop\n      jump\t// out\n        /* \"#utility.yul\":1259:1377   */\n    tag_56:\n        /* \"#utility.yul\":1346:1370   */\n      tag_94\n        /* \"#utility.yul\":1364:1369   */\n      dup2\n        /* \"#utility.yul\":1346:1370   */\n      tag_55\n      jump\t// in\n    tag_94:\n        /* \"#utility.yul\":1341:1344   */\n      dup3\n        /* \"#utility.yul\":1334:1371   */\n      mstore\n        /* \"#utility.yul\":1259:1377   */\n      pop\n      pop\n      jump\t// out\n        /* \"#utility.yul\":1383:1487   */\n    tag_57:\n        /* \"#utility.yul\":1428:1435   */\n      0x00\n        /* \"#utility.yul\":1457:1481   */\n      tag_96\n        /* \"#utility.yul\":1475:1480   */\n      dup3\n        /* \"#utility.yul\":1457:1481   */\n      tag_54\n      jump\t// in\n    tag_96:\n        /* \"#utility.yul\":1446:1481   */\n      swap1\n      pop\n        /* \"#utility.yul\":1383:1487   */\n      swap2\n      swap1\n      pop\n      jump\t// out\n        /* \"#utility.yul\":1493:1635   */\n    tag_58:\n        /* \"#utility.yul\":1596:1628   */\n      tag_98\n        /* \"#utility.yul\":1622:1627   */\n      dup2\n        /* \"#utility.yul\":1596:1628   */\n      tag_57\n      jump\t// in\n    tag_98:\n        /* \"#utility.yul\":1591:1594   */\n      dup3\n        /* \"#utility.yul\":1584:1629   */\n      mstore\n        /* \"#utility.yul\":1493:1635   */\n      pop\n      pop\n      jump\t// out\n        /* \"#utility.yul\":1641:1759   */\n    tag_59:\n        /* \"#utility.yul\":1728:1752   */\n      tag_100\n        /* \"#utility.yul\":1746:1751   */\n      dup2\n        /* \"#utility.yul\":1728:1752   */\n      tag_51\n      jump\t// in\n    tag_100:\n        /* \"#utility.yul\":1723:1726   */\n      dup3\n        /* \"#utility.yul\":1716:1753   */\n      mstore\n        /* \"#utility.yul\":1641:1759   */\n      pop\n      pop\n      jump\t// out\n        /* \"#utility.yul\":1765:1855   */\n    tag_60:\n        /* \"#utility.yul\":1799:1806   */\n      0x00\n        /* \"#utility.yul\":1842:1847   */\n      dup2\n        /* \"#utility.yul\":1835:1848   */\n      iszero\n        /* \"#utility.yul\":1828:1849   */\n      iszero\n        /* \"#utility.yul\":1817:1849   */\n      swap1\n      pop\n        /* \"#utility.yul\":1765:1855   */\n      swap2\n      swap1\n      pop\n      jump\t// out\n        /* \"#utility.yul\":1861:1970   */\n    tag_61:\n        /* \"#utility.yul\":1942:1963   */\n      tag_103\n        /* \"#utility.yul\":1957:1962   */\n      dup2\n        /* \"#utility.yul\":1942:1963   */\n      tag_60\n      jump\t// in\n    tag_103:\n        /* \"#utility.yul\":1937:1940   */\n      dup3\n        /* \"#utility.yul\":1930:1964   */\n      mstore\n        /* \"#utility.yul\":1861:1970   */\n      pop\n      pop\n      jump\t// out\n        /* \"#utility.yul\":1976:2648   */\n    tag_12:\n        /* \"#utility.yul\":2185:2189   */\n      0x00\n        /* \"#utility.yul\":2223:2226   */\n      0xa0\n        /* \"#utility.yul\":2212:2221   */\n      dup3\n        /* \"#utility.yul\":2208:2227   */\n      add\n        /* \"#utility.yul\":2200:2227   */\n      swap1\n      pop\n        /* \"#utility.yul\":2237:2308   */\n      tag_105\n        /* \"#utility.yul\":2305:2306   */\n      0x00\n        /* \"#utility.yul\":2294:2303   */\n      dup4\n        /* \"#utility.yul\":2290:2307   */\n      add\n        /* \"#utility.yul\":2281:2287   */\n      dup9\n        /* \"#utility.yul\":2237:2308   */\n      tag_56\n      jump\t// in\n    tag_105:\n        /* \"#utility.yul\":2318:2406   */\n      tag_106\n        /* \"#utility.yul\":2402:2404   */\n      0x20\n        /* \"#utility.yul\":2391:2400   */\n      dup4\n        /* \"#utility.yul\":2387:2405   */\n      add\n        /* \"#utility.yul\":2378:2384   */\n      dup8\n        /* \"#utility.yul\":2318:2406   */\n      tag_58\n      jump\t// in\n    tag_106:\n        /* \"#utility.yul\":2416:2488   */\n      tag_107\n        /* \"#utility.yul\":2484:2486   */\n      0x40\n        /* \"#utility.yul\":2473:2482   */\n      dup4\n        /* \"#utility.yul\":2469:2487   */\n      add\n        /* \"#utility.yul\":2460:2466   */\n      dup7\n        /* \"#utility.yul\":2416:2488   */\n      tag_59\n      jump\t// in\n    tag_107:\n        /* \"#utility.yul\":2498:2564   */\n      tag_108\n        /* \"#utility.yul\":2560:2562   */\n      0x60\n        /* \"#utility.yul\":2549:2558   */\n      dup4\n        /* \"#utility.yul\":2545:2563   */\n      add\n        /* \"#utility.yul\":2536:2542   */\n      dup6\n        /* \"#utility.yul\":2498:2564   */\n      tag_61\n      jump\t// in\n    tag_108:\n        /* \"#utility.yul\":2574:2641   */\n      tag_109\n        /* \"#utility.yul\":2636:2639   */\n      0x80\n        /* \"#utility.yul\":2625:2634   */\n      dup4\n        /* \"#utility.yul\":2621:2640   */\n      add\n        /* \"#utility.yul\":2612:2618   */\n      dup5\n        /* \"#utility.yul\":2574:2641   */\n      tag_61\n      jump\t// in\n    tag_109:\n        /* \"#utility.yul\":1976:2648   */\n      swap7\n      swap6\n      pop\n      pop\n      pop\n      pop\n      pop\n      pop\n      jump\t// out\n        /* \"#utility.yul\":2654:2876   */\n    tag_17:\n        /* \"#utility.yul\":2747:2751   */\n      0x00\n        /* \"#utility.yul\":2785:2787   */\n      0x20\n        /* \"#utility.yul\":2774:2783   */\n      dup3\n        /* \"#utility.yul\":2770:2788   */\n      add\n        /* \"#utility.yul\":2762:2788   */\n      swap1\n      pop\n        /* \"#utility.yul\":2798:2869   */\n      tag_111\n        /* \"#utility.yul\":2866:2867   */\n      0x00\n        /* \"#utility.yul\":2855:2864   */\n      dup4\n        /* \"#utility.yul\":2851:2868   */\n      add\n        /* \"#utility.yul\":2842:2848   */\n      dup5\n        /* \"#utility.yul\":2798:2869   */\n      tag_59\n      jump\t// in\n    tag_111:\n        /* \"#utility.yul\":2654:2876   */\n      swap3\n      swap2\n      pop\n      pop\n      jump\t// out\n        /* \"#utility.yul\":2882:3020   */\n    tag_62:\n        /* \"#utility.yul\":2963:2995   */\n      tag_113\n        /* \"#utility.yul\":2989:2994   */\n      dup2\n        /* \"#utility.yul\":2963:2995   */\n      tag_57\n      jump\t// in\n    tag_113:\n        /* \"#utility.yul\":2956:2961   */\n      dup2\n        /* \"#utility.yul\":2953:2996   */\n      eq\n        /* \"#utility.yul\":2943:3014   */\n      tag_114\n      jumpi\n        /* \"#utility.yul\":3010:3011   */\n      0x00\n        /* \"#utility.yul\":3007:3008   */\n      dup1\n        /* \"#utility.yul\":3000:3012   */\n      revert\n        /* \"#utility.yul\":2943:3014   */\n    tag_114:\n        /* \"#utility.yul\":2882:3020   */\n      pop\n      jump\t// out\n        /* \"#utility.yul\":3026:3181   */\n    tag_63:\n        /* \"#utility.yul\":3080:3085   */\n      0x00\n        /* \"#utility.yul\":3118:3124   */\n      dup2\n        /* \"#utility.yul\":3105:3125   */\n      calldataload\n        /* \"#utility.yul\":3096:3125   */\n      swap1\n      pop\n        /* \"#utility.yul\":3134:3175   */\n      tag_116\n        /* \"#utility.yul\":3169:3174   */\n      dup2\n        /* \"#utility.yul\":3134:3175   */\n      tag_62\n      jump\t// in\n    tag_116:\n        /* \"#utility.yul\":3026:3181   */\n      swap3\n      swap2\n      pop\n      pop\n      jump\t// out\n        /* \"#utility.yul\":3187:3303   */\n    tag_64:\n        /* \"#utility.yul\":3257:3278   */\n      tag_118\n        /* \"#utility.yul\":3272:3277   */\n      dup2\n        /* \"#utility.yul\":3257:3278   */\n      tag_60\n      jump\t// in\n    tag_118:\n        /* \"#utility.yul\":3250:3255   */\n      dup2\n        /* \"#utility.yul\":3247:3279   */\n      eq\n        /* \"#utility.yul\":3237:3297   */\n      tag_119\n      jumpi\n        /* \"#utility.yul\":3293:3294   */\n      0x00\n        /* \"#utility.yul\":3290:3291   */\n      dup1\n        /* \"#utility.yul\":3283:3295   */\n      revert\n        /* \"#utility.yul\":3237:3297   */\n    tag_119:\n        /* \"#utility.yul\":3187:3303   */\n      pop\n      jump\t// out\n        /* \"#utility.yul\":3309:3442   */\n    tag_65:\n        /* \"#utility.yul\":3352:3357   */\n      0x00\n        /* \"#utility.yul\":3390:3396   */\n      dup2\n        /* \"#utility.yul\":3377:3397   */\n      calldataload\n        /* \"#utility.yul\":3368:3397   */\n      swap1\n      pop\n        /* \"#utility.yul\":3406:3436   */\n      tag_121\n        /* \"#utility.yul\":3430:3435   */\n      dup2\n        /* \"#utility.yul\":3406:3436   */\n      tag_64\n      jump\t// in\n    tag_121:\n        /* \"#utility.yul\":3309:3442   */\n      swap3\n      swap2\n      pop\n      pop\n      jump\t// out\n        /* \"#utility.yul\":3448:3932   */\n    tag_20:\n        /* \"#utility.yul\":3521:3527   */\n      0x00\n        /* \"#utility.yul\":3529:3535   */\n      dup1\n        /* \"#utility.yul\":3578:3580   */\n      0x40\n        /* \"#utility.yul\":3566:3575   */\n      dup4\n        /* \"#utility.yul\":3557:3564   */\n      dup6\n        /* \"#utility.yul\":3553:3576   */\n      sub\n        /* \"#utility.yul\":3549:3581   */\n      slt\n        /* \"#utility.yul\":3546:3665   */\n      iszero\n      tag_123\n      jumpi\n        /* \"#utility.yul\":3584:3663   */\n      tag_124\n      tag_49\n      jump\t// in\n    tag_124:\n        /* \"#utility.yul\":3546:3665   */\n    tag_123:\n        /* \"#utility.yul\":3704:3705   */\n      0x00\n        /* \"#utility.yul\":3729:3790   */\n      tag_125\n        /* \"#utility.yul\":3782:3789   */\n      dup6\n        /* \"#utility.yul\":3773:3779   */\n      dup3\n        /* \"#utility.yul\":3762:3771   */\n      dup7\n        /* \"#utility.yul\":3758:3780   */\n      add\n        /* \"#utility.yul\":3729:3790   */\n      tag_63\n      jump\t// in\n    tag_125:\n        /* \"#utility.yul\":3719:3790   */\n      swap3\n      pop\n        /* \"#utility.yul\":3675:3800   */\n      pop\n        /* \"#utility.yul\":3839:3841   */\n      0x20\n        /* \"#utility.yul\":3865:3915   */\n      tag_126\n        /* \"#utility.yul\":3907:3914   */\n      dup6\n        /* \"#utility.yul\":3898:3904   */\n      dup3\n        /* \"#utility.yul\":3887:3896   */\n      dup7\n        /* \"#utility.yul\":3883:3905   */\n      add\n        /* \"#utility.yul\":3865:3915   */\n      tag_65\n      jump\t// in\n    tag_126:\n        /* \"#utility.yul\":3855:3915   */\n      swap2\n      pop\n        /* \"#utility.yul\":3810:3925   */\n      pop\n        /* \"#utility.yul\":3448:3932   */\n      swap3\n      pop\n      swap3\n      swap1\n      pop\n      jump\t// out\n        /* \"#utility.yul\":3938:4107   */\n    tag_66:\n        /* \"#utility.yul\":4022:4033   */\n      0x00\n        /* \"#utility.yul\":4056:4062   */\n      dup3\n        /* \"#utility.yul\":4051:4054   */\n      dup3\n        /* \"#utility.yul\":4044:4063   */\n      mstore\n        /* \"#utility.yul\":4096:4100   */\n      0x20\n        /* \"#utility.yul\":4091:4094   */\n      dup3\n        /* \"#utility.yul\":4087:4101   */\n      add\n        /* \"#utility.yul\":4072:4101   */\n      swap1\n      pop\n        /* \"#utility.yul\":3938:4107   */\n      swap3\n      swap2\n      pop\n      pop\n      jump\t// out\n        /* \"#utility.yul\":4113:4285   */\n    tag_67:\n        /* \"#utility.yul\":4253:4277   */\n      0x496e76616c6964207061796d656e7420616d6f756e7400000000000000000000\n        /* \"#utility.yul\":4249:4250   */\n      0x00\n        /* \"#utility.yul\":4241:4247   */\n      dup3\n        /* \"#utility.yul\":4237:4251   */\n      add\n        /* \"#utility.yul\":4230:4278   */\n      mstore\n        /* \"#utility.yul\":4113:4285   */\n      pop\n      jump\t// out\n        /* \"#utility.yul\":4291:4657   */\n    tag_68:\n        /* \"#utility.yul\":4433:4436   */\n      0x00\n        /* \"#utility.yul\":4454:4521   */\n      tag_130\n        /* \"#utility.yul\":4518:4520   */\n      0x16\n        /* \"#utility.yul\":4513:4516   */\n      dup4\n        /* \"#utility.yul\":4454:4521   */\n      tag_66\n      jump\t// in\n    tag_130:\n        /* \"#utility.yul\":4447:4521   */\n      swap2\n      pop\n        /* \"#utility.yul\":4530:4623   */\n      tag_131\n        /* \"#utility.yul\":4619:4622   */\n      dup3\n        /* \"#utility.yul\":4530:4623   */\n      tag_67\n      jump\t// in\n    tag_131:\n        /* \"#utility.yul\":4648:4650   */\n      0x20\n        /* \"#utility.yul\":4643:4646   */\n      dup3\n        /* \"#utility.yul\":4639:4651   */\n      add\n        /* \"#utility.yul\":4632:4651   */\n      swap1\n      pop\n        /* \"#utility.yul\":4291:4657   */\n      swap2\n      swap1\n      pop\n      jump\t// out\n        /* \"#utility.yul\":4663:5082   */\n    tag_29:\n        /* \"#utility.yul\":4829:4833   */\n      0x00\n        /* \"#utility.yul\":4867:4869   */\n      0x20\n        /* \"#utility.yul\":4856:4865   */\n      dup3\n        /* \"#utility.yul\":4852:4870   */\n      add\n        /* \"#utility.yul\":4844:4870   */\n      swap1\n      pop\n        /* \"#utility.yul\":4916:4925   */\n      dup2\n        /* \"#utility.yul\":4910:4914   */\n      dup2\n        /* \"#utility.yul\":4906:4926   */\n      sub\n        /* \"#utility.yul\":4902:4903   */\n      0x00\n        /* \"#utility.yul\":4891:4900   */\n      dup4\n        /* \"#utility.yul\":4887:4904   */\n      add\n        /* \"#utility.yul\":4880:4927   */\n      mstore\n        /* \"#utility.yul\":4944:5075   */\n      tag_133\n        /* \"#utility.yul\":5070:5074   */\n      dup2\n        /* \"#utility.yul\":4944:5075   */\n      tag_68\n      jump\t// in\n    tag_133:\n        /* \"#utility.yul\":4936:5075   */\n      swap1\n      pop\n        /* \"#utility.yul\":4663:5082   */\n      swap2\n      swap1\n      pop\n      jump\t// out\n        /* \"#utility.yul\":5088:5268   */\n    tag_69:\n        /* \"#utility.yul\":5136:5213   */\n      0x4e487b7100000000000000000000000000000000000000000000000000000000\n        /* \"#utility.yul\":5133:5134   */\n      0x00\n        /* \"#utility.yul\":5126:5214   */\n      mstore\n        /* \"#utility.yul\":5233:5237   */\n      0x11\n        /* \"#utility.yul\":5230:5231   */\n      0x04\n        /* \"#utility.yul\":5223:5238   */\n      mstore\n        /* \"#utility.yul\":5257:5261   */\n      0x24\n        /* \"#utility.yul\":5254:5255   */\n      0x00\n        /* \"#utility.yul\":5247:5262   */\n      revert\n        /* \"#utility.yul\":5274:5507   */\n    tag_31:\n        /* \"#utility.yul\":5313:5316   */\n      0x00\n        /* \"#utility.yul\":5336:5360   */\n      tag_136\n        /* \"#utility.yul\":5354:5359   */\n      dup3\n        /* \"#utility.yul\":5336:5360   */\n      tag_51\n      jump\t// in\n    tag_136:\n        /* \"#utility.yul\":5327:5360   */\n      swap2\n      pop\n        /* \"#utility.yul\":5382:5448   */\n      0xffffffffffffffffffffffffffffffffffffffffffffffffffffffffffffffff\n        /* \"#utility.yul\":5375:5380   */\n      dup3\n        /* \"#utility.yul\":5372:5449   */\n      sub\n        /* \"#utility.yul\":5369:5472   */\n      tag_137\n      jumpi\n        /* \"#utility.yul\":5452:5470   */\n      tag_138\n      tag_69\n      jump\t// in\n    tag_138:\n        /* \"#utility.yul\":5369:5472   */\n    tag_137:\n        /* \"#utility.yul\":5499:5500   */\n      0x01\n        /* \"#utility.yul\":5492:5497   */\n      dup3\n        /* \"#utility.yul\":5488:5501   */\n      add\n        /* \"#utility.yul\":5481:5501   */\n      swap1\n      pop\n        /* \"#utility.yul\":5274:5507   */\n      swap2\n      swap1\n      pop\n      jump\t// out\n        /* \"#utility.yul\":5513:6197   */\n    tag_33:\n        /* \"#utility.yul\":5728:5732   */\n      0x00\n        /* \"#utility.yul\":5766:5769   */\n      0xa0\n        /* \"#utility.yul\":5755:5764   */\n      dup3\n        /* \"#utility.yul\":5751:5770   */\n      add\n        /* \"#utility.yul\":5743:5770   */\n      swap1\n      pop\n        /* \"#utility.yul\":5780:5851   */\n      tag_140\n        /* \"#utility.yul\":5848:5849   */\n      0x00\n        /* \"#utility.yul\":5837:5846   */\n      dup4\n        /* \"#utility.yul\":5833:5850   */\n      add\n        /* \"#utility.yul\":5824:5830   */\n      dup9\n        /* \"#utility.yul\":5780:5851   */\n      tag_59\n      jump\t// in\n    tag_140:\n        /* \"#utility.yul\":5861:5933   */\n      tag_141\n        /* \"#utility.yul\":5929:5931   */\n      0x20\n        /* \"#utility.yul\":5918:5927   */\n      dup4\n        /* \"#utility.yul\":5914:5932   */\n      add\n        /* \"#utility.yul\":5905:5911   */\n      dup8\n        /* \"#utility.yul\":5861:5933   */\n      tag_56\n      jump\t// in\n    tag_141:\n        /* \"#utility.yul\":5943:6031   */\n      tag_142\n        /* \"#utility.yul\":6027:6029   */\n      0x40\n        /* \"#utility.yul\":6016:6025   */\n      dup4\n        /* \"#utility.yul\":6012:6030   */\n      add\n        /* \"#utility.yul\":6003:6009   */\n      dup7\n        /* \"#utility.yul\":5943:6031   */\n      tag_58\n      jump\t// in\n    tag_142:\n        /* \"#utility.yul\":6041:6113   */\n      tag_143\n        /* \"#utility.yul\":6109:6111   */\n      0x60\n        /* \"#utility.yul\":6098:6107   */\n      dup4\n        /* \"#utility.yul\":6094:6112   */\n      add\n        /* \"#utility.yul\":6085:6091   */\n      dup6\n        /* \"#utility.yul\":6041:6113   */\n      tag_59\n      jump\t// in\n    tag_143:\n        /* \"#utility.yul\":6123:6190   */\n      tag_144\n        /* \"#utility.yul\":6185:6188   */\n      0x80\n        /* \"#utility.yul\":6174:6183   */\n      dup4\n        /* \"#utility.yul\":6170:6189   */\n      add\n        /* \"#utility.yul\":6161:6167   */\n      dup5\n        /* \"#utility.yul\":6123:6190   */\n      tag_61\n      jump\t// in\n    tag_144:\n        /* \"#utility.yul\":5513:6197   */\n      swap7\n      swap6\n      pop\n      pop\n      pop\n      pop\n      pop\n      pop\n      jump\t// out\n        /* \"#utility.yul\":6203:6375   */\n    tag_70:\n        /* \"#utility.yul\":6343:6367   */\n      0x496e76616c6964207472616e73616374696f6e20494400000000000000000000\n        /* \"#utility.yul\":6339:6340   */\n      0x00\n        /* \"#utility.yul\":6331:6337   */\n      dup3\n        /* \"#utility.yul\":6327:6341   */\n      add\n        /* \"#utility.yul\":6320:6368   */\n      mstore\n        /* \"#utility.yul\":6203:6375   */\n      pop\n      jump\t// out\n        /* \"#utility.yul\":6381:6747   */\n    tag_71:\n        /* \"#utility.yul\":6523:6526   */\n      0x00\n        /* \"#utility.yul\":6544:6611   */\n      tag_147\n        /* \"#utility.yul\":6608:6610   */\n      0x16\n        /* \"#utility.yul\":6603:6606   */\n      dup4\n        /* \"#utility.yul\":6544:6611   */\n      tag_66\n      jump\t// in\n    tag_147:\n        /* \"#utility.yul\":6537:6611   */\n      swap2\n      pop\n        /* \"#utility.yul\":6620:6713   */\n      tag_148\n        /* \"#utility.yul\":6709:6712   */\n      dup3\n        /* \"#utility.yul\":6620:6713   */\n      tag_70\n      jump\t// in\n    tag_148:\n        /* \"#utility.yul\":6738:6740   */\n      0x20\n        /* \"#utility.yul\":6733:6736   */\n      dup3\n        /* \"#utility.yul\":6729:6741   */\n      add\n        /* \"#utility.yul\":6722:6741   */\n      swap1\n      pop\n        /* \"#utility.yul\":6381:6747   */\n      swap2\n      swap1\n      pop\n      jump\t// out\n        /* \"#utility.yul\":6753:7172   */\n    tag_37:\n        /* \"#utility.yul\":6919:6923   */\n      0x00\n        /* \"#utility.yul\":6957:6959   */\n      0x20\n        /* \"#utility.yul\":6946:6955   */\n      dup3\n        /* \"#utility.yul\":6942:6960   */\n      add\n        /* \"#utility.yul\":6934:6960   */\n      swap1\n      pop\n        /* \"#utility.yul\":7006:7015   */\n      dup2\n        /* \"#utility.yul\":7000:7004   */\n      dup2\n        /* \"#utility.yul\":6996:7016   */\n      sub\n        /* \"#utility.yul\":6992:6993   */\n      0x00\n        /* \"#utility.yul\":6981:6990   */\n      dup4\n        /* \"#utility.yul\":6977:6994   */\n      add\n        /* \"#utility.yul\":6970:7017   */\n      mstore\n        /* \"#utility.yul\":7034:7165   */\n      tag_150\n        /* \"#utility.yul\":7160:7164   */\n      dup2\n        /* \"#utility.yul\":7034:7165   */\n      tag_71\n      jump\t// in\n    tag_150:\n        /* \"#utility.yul\":7026:7165   */\n      swap1\n      pop\n        /* \"#utility.yul\":6753:7172   */\n      swap2\n      swap1\n      pop\n      jump\t// out\n        /* \"#utility.yul\":7178:7360   */\n    tag_72:\n        /* \"#utility.yul\":7318:7352   */\n      0x5472616e73616374696f6e20697320616c726561647920636f6d706c65746564\n        /* \"#utility.yul\":7314:7315   */\n      0x00\n        /* \"#utility.yul\":7306:7312   */\n      dup3\n        /* \"#utility.yul\":7302:7316   */\n      add\n        /* \"#utility.yul\":7295:7353   */\n      mstore\n        /* \"#utility.yul\":7178:7360   */\n      pop\n      jump\t// out\n        /* \"#utility.yul\":7366:7732   */\n    tag_73:\n        /* \"#utility.yul\":7508:7511   */\n      0x00\n        /* \"#utility.yul\":7529:7596   */\n      tag_153\n        /* \"#utility.yul\":7593:7595   */\n      0x20\n        /* \"#utility.yul\":7588:7591   */\n      dup4\n        /* \"#utility.yul\":7529:7596   */\n      tag_66\n      jump\t// in\n    tag_153:\n        /* \"#utility.yul\":7522:7596   */\n      swap2\n      pop\n        /* \"#utility.yul\":7605:7698   */\n      tag_154\n        /* \"#utility.yul\":7694:7697   */\n      dup3\n        /* \"#utility.yul\":7605:7698   */\n      tag_72\n      jump\t// in\n    tag_154:\n        /* \"#utility.yul\":7723:7725   */\n      0x20\n        /* \"#utility.yul\":7718:7721   */\n      dup3\n        /* \"#utility.yul\":7714:7726   */\n      add\n        /* \"#utility.yul\":7707:7726   */\n      swap1\n      pop\n        /* \"#utility.yul\":7366:7732   */\n      swap2\n      swap1\n      pop\n      jump\t// out\n        /* \"#utility.yul\":7738:8157   */\n    tag_40:\n        /* \"#utility.yul\":7904:7908   */\n      0x00\n        /* \"#utility.yul\":7942:7944   */\n      0x20\n        /* \"#utility.yul\":7931:7940   */\n      dup3\n        /* \"#utility.yul\":7927:7945   */\n      add\n        /* \"#utility.yul\":7919:7945   */\n      swap1\n      pop\n        /* \"#utility.yul\":7991:8000   */\n      dup2\n        /* \"#utility.yul\":7985:7989   */\n      dup2\n        /* \"#utility.yul\":7981:8001   */\n      sub\n        /* \"#utility.yul\":7977:7978   */\n      0x00\n        /* \"#utility.yul\":7966:7975   */\n      dup4\n        /* \"#utility.yul\":7962:7979   */\n      add\n        /* \"#utility.yul\":7955:8002   */\n      mstore\n        /* \"#utility.yul\":8019:8150   */\n      tag_156\n        /* \"#utility.yul\":8145:8149   */\n      dup2\n        /* \"#utility.yul\":8019:8150   */\n      tag_73\n      jump\t// in\n    tag_156:\n        /* \"#utility.yul\":8011:8150   */\n      swap1\n      pop\n        /* \"#utility.yul\":7738:8157   */\n      swap2\n      swap1\n      pop\n      jump\t// out\n        /* \"#utility.yul\":8163:8335   */\n    tag_74:\n        /* \"#utility.yul\":8303:8327   */\n      0x556e617574686f72697a656420726563697069656e7400000000000000000000\n        /* \"#utility.yul\":8299:8300   */\n      0x00\n        /* \"#utility.yul\":8291:8297   */\n      dup3\n        /* \"#utility.yul\":8287:8301   */\n      add\n        /* \"#utility.yul\":8280:8328   */\n      mstore\n        /* \"#utility.yul\":8163:8335   */\n      pop\n      jump\t// out\n        /* \"#utility.yul\":8341:8707   */\n    tag_75:\n        /* \"#utility.yul\":8483:8486   */\n      0x00\n        /* \"#utility.yul\":8504:8571   */\n      tag_159\n        /* \"#utility.yul\":8568:8570   */\n      0x16\n        /* \"#utility.yul\":8563:8566   */\n      dup4\n        /* \"#utility.yul\":8504:8571   */\n      tag_66\n      jump\t// in\n    tag_159:\n        /* \"#utility.yul\":8497:8571   */\n      swap2\n      pop\n        /* \"#utility.yul\":8580:8673   */\n      tag_160\n        /* \"#utility.yul\":8669:8672   */\n      dup3\n        /* \"#utility.yul\":8580:8673   */\n      tag_74\n      jump\t// in\n    tag_160:\n        /* \"#utility.yul\":8698:8700   */\n      0x20\n        /* \"#utility.yul\":8693:8696   */\n      dup3\n        /* \"#utility.yul\":8689:8701   */\n      add\n        /* \"#utility.yul\":8682:8701   */\n      swap1\n      pop\n        /* \"#utility.yul\":8341:8707   */\n      swap2\n      swap1\n      pop\n      jump\t// out\n        /* \"#utility.yul\":8713:9132   */\n    tag_43:\n        /* \"#utility.yul\":8879:8883   */\n      0x00\n        /* \"#utility.yul\":8917:8919   */\n      0x20\n        /* \"#utility.yul\":8906:8915   */\n      dup3\n        /* \"#utility.yul\":8902:8920   */\n      add\n        /* \"#utility.yul\":8894:8920   */\n      swap1\n      pop\n        /* \"#utility.yul\":8966:8975   */\n      dup2\n        /* \"#utility.yul\":8960:8964   */\n      dup2\n        /* \"#utility.yul\":8956:8976   */\n      sub\n        /* \"#utility.yul\":8952:8953   */\n      0x00\n        /* \"#utility.yul\":8941:8950   */\n      dup4\n        /* \"#utility.yul\":8937:8954   */\n      add\n        /* \"#utility.yul\":8930:8977   */\n      mstore\n        /* \"#utility.yul\":8994:9125   */\n      tag_162\n        /* \"#utility.yul\":9120:9124   */\n      dup2\n        /* \"#utility.yul\":8994:9125   */\n      tag_75\n      jump\t// in\n    tag_162:\n        /* \"#utility.yul\":8986:9125   */\n      swap1\n      pop\n        /* \"#utility.yul\":8713:9132   */\n      swap2\n      swap1\n      pop\n      jump\t// out\n\n    auxdata: 0xa2646970667358221220b51c372723784ecefdef0c4a56141cab4463ea4b0756acb6c5fcf3da44f3049b64736f6c63430008120033\n}\n",
				"bytecode": {
					"linkReferences": {},
					"object": "608060405234801561001057600080fd5b50610b37806100206000396000f3fe60806040526004361061003f5760003560e01c80639ace38c214610044578063b77bf60014610085578063d13bba1d146100b0578063e2eab483146100cc575b600080fd5b34801561005057600080fd5b5061006b600480360381019061006691906106b7565b6100f5565b60405161007c959493929190610770565b60405180910390f35b34801561009157600080fd5b5061009a610185565b6040516100a791906107c3565b60405180910390f35b6100ca60048036038101906100c59190610836565b61018b565b005b3480156100d857600080fd5b506100f360048036038101906100ee91906106b7565b610376565b005b60006020528060005260406000206000915090508060000160009054906101000a900473ffffffffffffffffffffffffffffffffffffffff16908060010160009054906101000a900473ffffffffffffffffffffffffffffffffffffffff16908060020154908060030160009054906101000a900460ff16908060030160019054906101000a900460ff16905085565b60015481565b600034116101ce576040517f08c379a00000000000000000000000000000000000000000000000000000000081526004016101c5906108d3565b60405180910390fd5b600060015490506040518060a001604052803373ffffffffffffffffffffffffffffffffffffffff1681526020018473ffffffffffffffffffffffffffffffffffffffff16815260200134815260200183151581526020016000151581525060008083815260200190815260200160002060008201518160000160006101000a81548173ffffffffffffffffffffffffffffffffffffffff021916908373ffffffffffffffffffffffffffffffffffffffff16021790555060208201518160010160006101000a81548173ffffffffffffffffffffffffffffffffffffffff021916908373ffffffffffffffffffffffffffffffffffffffff1602179055506040820151816002015560608201518160030160006101000a81548160ff02191690831515021790555060808201518160030160016101000a81548160ff0219169083151502179055509050506001600081548092919061032d90610922565b91905055507f470337c83a5a7bc73382b0f7fcf0471d7c0d2dec1c53d8efc65fabbcccd1f791813385348660405161036995949392919061096a565b60405180910390a1505050565b60015481106103ba576040517f08c379a00000000000000000000000000000000000000000000000000000000081526004016103b190610a09565b60405180910390fd5b600080600083815260200190815260200160002090508060030160019054906101000a900460ff1615610422576040517f08c379a000000000000000000000000000000000000000000000000000000000815260040161041990610a75565b60405180910390fd5b3373ffffffffffffffffffffffffffffffffffffffff168160010160009054906101000a900473ffffffffffffffffffffffffffffffffffffffff1673ffffffffffffffffffffffffffffffffffffffff16146104b4576040517f08c379a00000000000000000000000000000000000000000000000000000000081526004016104ab90610ae1565b60405180910390fd5b8060010160009054906101000a900473ffffffffffffffffffffffffffffffffffffffff1673ffffffffffffffffffffffffffffffffffffffff166108fc82600201549081150290604051600060405180830381858888f19350505050158015610522573d6000803e3d6000fd5b5060018160030160016101000a81548160ff0219169083151502179055507fcbce0eeecc13f87b90aa42420b2f9c79991f5d9fe86c0c4baba80b029f63aa09828260000160009054906101000a900473ffffffffffffffffffffffffffffffffffffffff168360010160009054906101000a900473ffffffffffffffffffffffffffffffffffffffff1684600201548560030160009054906101000a900460ff166040516105d495949392919061096a565b60405180910390a17f5dc0d45a3ae3c757fc98986fb64cd937b29c3ab5301c760fb9474a480376070f828260000160009054906101000a900473ffffffffffffffffffffffffffffffffffffffff168360010160009054906101000a900473ffffffffffffffffffffffffffffffffffffffff1684600201548560030160009054906101000a900460ff1660405161067095949392919061096a565b60405180910390a15050565b600080fd5b6000819050919050565b61069481610681565b811461069f57600080fd5b50565b6000813590506106b18161068b565b92915050565b6000602082840312156106cd576106cc61067c565b5b60006106db848285016106a2565b91505092915050565b600073ffffffffffffffffffffffffffffffffffffffff82169050919050565b600061070f826106e4565b9050919050565b61071f81610704565b82525050565b6000610730826106e4565b9050919050565b61074081610725565b82525050565b61074f81610681565b82525050565b60008115159050919050565b61076a81610755565b82525050565b600060a0820190506107856000830188610716565b6107926020830187610737565b61079f6040830186610746565b6107ac6060830185610761565b6107b96080830184610761565b9695505050505050565b60006020820190506107d86000830184610746565b92915050565b6107e781610725565b81146107f257600080fd5b50565b600081359050610804816107de565b92915050565b61081381610755565b811461081e57600080fd5b50565b6000813590506108308161080a565b92915050565b6000806040838503121561084d5761084c61067c565b5b600061085b858286016107f5565b925050602061086c85828601610821565b9150509250929050565b600082825260208201905092915050565b7f496e76616c6964207061796d656e7420616d6f756e7400000000000000000000600082015250565b60006108bd601683610876565b91506108c882610887565b602082019050919050565b600060208201905081810360008301526108ec816108b0565b9050919050565b7f4e487b7100000000000000000000000000000000000000000000000000000000600052601160045260246000fd5b600061092d82610681565b91507fffffffffffffffffffffffffffffffffffffffffffffffffffffffffffffffff820361095f5761095e6108f3565b5b600182019050919050565b600060a08201905061097f6000830188610746565b61098c6020830187610716565b6109996040830186610737565b6109a66060830185610746565b6109b36080830184610761565b9695505050505050565b7f496e76616c6964207472616e73616374696f6e20494400000000000000000000600082015250565b60006109f3601683610876565b91506109fe826109bd565b602082019050919050565b60006020820190508181036000830152610a22816109e6565b9050919050565b7f5472616e73616374696f6e20697320616c726561647920636f6d706c65746564600082015250565b6000610a5f602083610876565b9150610a6a82610a29565b602082019050919050565b60006020820190508181036000830152610a8e81610a52565b9050919050565b7f556e617574686f72697a656420726563697069656e7400000000000000000000600082015250565b6000610acb601683610876565b9150610ad682610a95565b602082019050919050565b60006020820190508181036000830152610afa81610abe565b905091905056fea2646970667358221220b51c372723784ecefdef0c4a56141cab4463ea4b0756acb6c5fcf3da44f3049b64736f6c63430008120033",
					"opcodes": "PUSH1 0x80 PUSH1 0x40 MSTORE CALLVALUE DUP1 ISZERO PUSH2 0x10 JUMPI PUSH1 0x0 DUP1 REVERT JUMPDEST POP PUSH2 0xB37 DUP1 PUSH2 0x20 PUSH1 0x0 CODECOPY PUSH1 0x0 RETURN INVALID PUSH1 0x80 PUSH1 0x40 MSTORE PUSH1 0x4 CALLDATASIZE LT PUSH2 0x3F JUMPI PUSH1 0x0 CALLDATALOAD PUSH1 0xE0 SHR DUP1 PUSH4 0x9ACE38C2 EQ PUSH2 0x44 JUMPI DUP1 PUSH4 0xB77BF600 EQ PUSH2 0x85 JUMPI DUP1 PUSH4 0xD13BBA1D EQ PUSH2 0xB0 JUMPI DUP1 PUSH4 0xE2EAB483 EQ PUSH2 0xCC JUMPI JUMPDEST PUSH1 0x0 DUP1 REVERT JUMPDEST CALLVALUE DUP1 ISZERO PUSH2 0x50 JUMPI PUSH1 0x0 DUP1 REVERT JUMPDEST POP PUSH2 0x6B PUSH1 0x4 DUP1 CALLDATASIZE SUB DUP2 ADD SWAP1 PUSH2 0x66 SWAP2 SWAP1 PUSH2 0x6B7 JUMP JUMPDEST PUSH2 0xF5 JUMP JUMPDEST PUSH1 0x40 MLOAD PUSH2 0x7C SWAP6 SWAP5 SWAP4 SWAP3 SWAP2 SWAP1 PUSH2 0x770 JUMP JUMPDEST PUSH1 0x40 MLOAD DUP1 SWAP2 SUB SWAP1 RETURN JUMPDEST CALLVALUE DUP1 ISZERO PUSH2 0x91 JUMPI PUSH1 0x0 DUP1 REVERT JUMPDEST POP PUSH2 0x9A PUSH2 0x185 JUMP JUMPDEST PUSH1 0x40 MLOAD PUSH2 0xA7 SWAP2 SWAP1 PUSH2 0x7C3 JUMP JUMPDEST PUSH1 0x40 MLOAD DUP1 SWAP2 SUB SWAP1 RETURN JUMPDEST PUSH2 0xCA PUSH1 0x4 DUP1 CALLDATASIZE SUB DUP2 ADD SWAP1 PUSH2 0xC5 SWAP2 SWAP1 PUSH2 0x836 JUMP JUMPDEST PUSH2 0x18B JUMP JUMPDEST STOP JUMPDEST CALLVALUE DUP1 ISZERO PUSH2 0xD8 JUMPI PUSH1 0x0 DUP1 REVERT JUMPDEST POP PUSH2 0xF3 PUSH1 0x4 DUP1 CALLDATASIZE SUB DUP2 ADD SWAP1 PUSH2 0xEE SWAP2 SWAP1 PUSH2 0x6B7 JUMP JUMPDEST PUSH2 0x376 JUMP JUMPDEST STOP JUMPDEST PUSH1 0x0 PUSH1 0x20 MSTORE DUP1 PUSH1 0x0 MSTORE PUSH1 0x40 PUSH1 0x0 KECCAK256 PUSH1 0x0 SWAP2 POP SWAP1 POP DUP1 PUSH1 0x0 ADD PUSH1 0x0 SWAP1 SLOAD SWAP1 PUSH2 0x100 EXP SWAP1 DIV PUSH20 0xFFFFFFFFFFFFFFFFFFFFFFFFFFFFFFFFFFFFFFFF AND SWAP1 DUP1 PUSH1 0x1 ADD PUSH1 0x0 SWAP1 SLOAD SWAP1 PUSH2 0x100 EXP SWAP1 DIV PUSH20 0xFFFFFFFFFFFFFFFFFFFFFFFFFFFFFFFFFFFFFFFF AND SWAP1 DUP1 PUSH1 0x2 ADD SLOAD SWAP1 DUP1 PUSH1 0x3 ADD PUSH1 0x0 SWAP1 SLOAD SWAP1 PUSH2 0x100 EXP SWAP1 DIV PUSH1 0xFF AND SWAP1 DUP1 PUSH1 0x3 ADD PUSH1 0x1 SWAP1 SLOAD SWAP1 PUSH2 0x100 EXP SWAP1 DIV PUSH1 0xFF AND SWAP1 POP DUP6 JUMP JUMPDEST PUSH1 0x1 SLOAD DUP2 JUMP JUMPDEST PUSH1 0x0 CALLVALUE GT PUSH2 0x1CE JUMPI PUSH1 0x40 MLOAD PUSH32 0x8C379A000000000000000000000000000000000000000000000000000000000 DUP2 MSTORE PUSH1 0x4 ADD PUSH2 0x1C5 SWAP1 PUSH2 0x8D3 JUMP JUMPDEST PUSH1 0x40 MLOAD DUP1 SWAP2 SUB SWAP1 REVERT JUMPDEST PUSH1 0x0 PUSH1 0x1 SLOAD SWAP1 POP PUSH1 0x40 MLOAD DUP1 PUSH1 0xA0 ADD PUSH1 0x40 MSTORE DUP1 CALLER PUSH20 0xFFFFFFFFFFFFFFFFFFFFFFFFFFFFFFFFFFFFFFFF AND DUP2 MSTORE PUSH1 0x20 ADD DUP5 PUSH20 0xFFFFFFFFFFFFFFFFFFFFFFFFFFFFFFFFFFFFFFFF AND DUP2 MSTORE PUSH1 0x20 ADD CALLVALUE DUP2 MSTORE PUSH1 0x20 ADD DUP4 ISZERO ISZERO DUP2 MSTORE PUSH1 0x20 ADD PUSH1 0x0 ISZERO ISZERO DUP2 MSTORE POP PUSH1 0x0 DUP1 DUP4 DUP2 MSTORE PUSH1 0x20 ADD SWAP1 DUP2 MSTORE PUSH1 0x20 ADD PUSH1 0x0 KECCAK256 PUSH1 0x0 DUP3 ADD MLOAD DUP2 PUSH1 0x0 ADD PUSH1 0x0 PUSH2 0x100 EXP DUP2 SLOAD DUP2 PUSH20 0xFFFFFFFFFFFFFFFFFFFFFFFFFFFFFFFFFFFFFFFF MUL NOT AND SWAP1 DUP4 PUSH20 0xFFFFFFFFFFFFFFFFFFFFFFFFFFFFFFFFFFFFFFFF AND MUL OR SWAP1 SSTORE POP PUSH1 0x20 DUP3 ADD MLOAD DUP2 PUSH1 0x1 ADD PUSH1 0x0 PUSH2 0x100 EXP DUP2 SLOAD DUP2 PUSH20 0xFFFFFFFFFFFFFFFFFFFFFFFFFFFFFFFFFFFFFFFF MUL NOT AND SWAP1 DUP4 PUSH20 0xFFFFFFFFFFFFFFFFFFFFFFFFFFFFFFFFFFFFFFFF AND MUL OR SWAP1 SSTORE POP PUSH1 0x40 DUP3 ADD MLOAD DUP2 PUSH1 0x2 ADD SSTORE PUSH1 0x60 DUP3 ADD MLOAD DUP2 PUSH1 0x3 ADD PUSH1 0x0 PUSH2 0x100 EXP DUP2 SLOAD DUP2 PUSH1 0xFF MUL NOT AND SWAP1 DUP4 ISZERO ISZERO MUL OR SWAP1 SSTORE POP PUSH1 0x80 DUP3 ADD MLOAD DUP2 PUSH1 0x3 ADD PUSH1 0x1 PUSH2 0x100 EXP DUP2 SLOAD DUP2 PUSH1 0xFF MUL NOT AND SWAP1 DUP4 ISZERO ISZERO MUL OR SWAP1 SSTORE POP SWAP1 POP POP PUSH1 0x1 PUSH1 0x0 DUP2 SLOAD DUP1 SWAP3 SWAP2 SWAP1 PUSH2 0x32D SWAP1 PUSH2 0x922 JUMP JUMPDEST SWAP2 SWAP1 POP SSTORE POP PUSH32 0x470337C83A5A7BC73382B0F7FCF0471D7C0D2DEC1C53D8EFC65FABBCCCD1F791 DUP2 CALLER DUP6 CALLVALUE DUP7 PUSH1 0x40 MLOAD PUSH2 0x369 SWAP6 SWAP5 SWAP4 SWAP3 SWAP2 SWAP1 PUSH2 0x96A JUMP JUMPDEST PUSH1 0x40 MLOAD DUP1 SWAP2 SUB SWAP1 LOG1 POP POP POP JUMP JUMPDEST PUSH1 0x1 SLOAD DUP2 LT PUSH2 0x3BA JUMPI PUSH1 0x40 MLOAD PUSH32 0x8C379A000000000000000000000000000000000000000000000000000000000 DUP2 MSTORE PUSH1 0x4 ADD PUSH2 0x3B1 SWAP1 PUSH2 0xA09 JUMP JUMPDEST PUSH1 0x40 MLOAD DUP1 SWAP2 SUB SWAP1 REVERT JUMPDEST PUSH1 0x0 DUP1 PUSH1 0x0 DUP4 DUP2 MSTORE PUSH1 0x20 ADD SWAP1 DUP2 MSTORE PUSH1 0x20 ADD PUSH1 0x0 KECCAK256 SWAP1 POP DUP1 PUSH1 0x3 ADD PUSH1 0x1 SWAP1 SLOAD SWAP1 PUSH2 0x100 EXP SWAP1 DIV PUSH1 0xFF AND ISZERO PUSH2 0x422 JUMPI PUSH1 0x40 MLOAD PUSH32 0x8C379A000000000000000000000000000000000000000000000000000000000 DUP2 MSTORE PUSH1 0x4 ADD PUSH2 0x419 SWAP1 PUSH2 0xA75 JUMP JUMPDEST PUSH1 0x40 MLOAD DUP1 SWAP2 SUB SWAP1 REVERT JUMPDEST CALLER PUSH20 0xFFFFFFFFFFFFFFFFFFFFFFFFFFFFFFFFFFFFFFFF AND DUP2 PUSH1 0x1 ADD PUSH1 0x0 SWAP1 SLOAD SWAP1 PUSH2 0x100 EXP SWAP1 DIV PUSH20 0xFFFFFFFFFFFFFFFFFFFFFFFFFFFFFFFFFFFFFFFF AND PUSH20 0xFFFFFFFFFFFFFFFFFFFFFFFFFFFFFFFFFFFFFFFF AND EQ PUSH2 0x4B4 JUMPI PUSH1 0x40 MLOAD PUSH32 0x8C379A000000000000000000000000000000000000000000000000000000000 DUP2 MSTORE PUSH1 0x4 ADD PUSH2 0x4AB SWAP1 PUSH2 0xAE1 JUMP JUMPDEST PUSH1 0x40 MLOAD DUP1 SWAP2 SUB SWAP1 REVERT JUMPDEST DUP1 PUSH1 0x1 ADD PUSH1 0x0 SWAP1 SLOAD SWAP1 PUSH2 0x100 EXP SWAP1 DIV PUSH20 0xFFFFFFFFFFFFFFFFFFFFFFFFFFFFFFFFFFFFFFFF AND PUSH20 0xFFFFFFFFFFFFFFFFFFFFFFFFFFFFFFFFFFFFFFFF AND PUSH2 0x8FC DUP3 PUSH1 0x2 ADD SLOAD SWAP1 DUP2 ISZERO MUL SWAP1 PUSH1 0x40 MLOAD PUSH1 0x0 PUSH1 0x40 MLOAD DUP1 DUP4 SUB DUP2 DUP6 DUP9 DUP9 CALL SWAP4 POP POP POP POP ISZERO DUP1 ISZERO PUSH2 0x522 JUMPI RETURNDATASIZE PUSH1 0x0 DUP1 RETURNDATACOPY RETURNDATASIZE PUSH1 0x0 REVERT JUMPDEST POP PUSH1 0x1 DUP2 PUSH1 0x3 ADD PUSH1 0x1 PUSH2 0x100 EXP DUP2 SLOAD DUP2 PUSH1 0xFF MUL NOT AND SWAP1 DUP4 ISZERO ISZERO MUL OR SWAP1 SSTORE POP PUSH32 0xCBCE0EEECC13F87B90AA42420B2F9C79991F5D9FE86C0C4BABA80B029F63AA09 DUP3 DUP3 PUSH1 0x0 ADD PUSH1 0x0 SWAP1 SLOAD SWAP1 PUSH2 0x100 EXP SWAP1 DIV PUSH20 0xFFFFFFFFFFFFFFFFFFFFFFFFFFFFFFFFFFFFFFFF AND DUP4 PUSH1 0x1 ADD PUSH1 0x0 SWAP1 SLOAD SWAP1 PUSH2 0x100 EXP SWAP1 DIV PUSH20 0xFFFFFFFFFFFFFFFFFFFFFFFFFFFFFFFFFFFFFFFF AND DUP5 PUSH1 0x2 ADD SLOAD DUP6 PUSH1 0x3 ADD PUSH1 0x0 SWAP1 SLOAD SWAP1 PUSH2 0x100 EXP SWAP1 DIV PUSH1 0xFF AND PUSH1 0x40 MLOAD PUSH2 0x5D4 SWAP6 SWAP5 SWAP4 SWAP3 SWAP2 SWAP1 PUSH2 0x96A JUMP JUMPDEST PUSH1 0x40 MLOAD DUP1 SWAP2 SUB SWAP1 LOG1 PUSH32 0x5DC0D45A3AE3C757FC98986FB64CD937B29C3AB5301C760FB9474A480376070F DUP3 DUP3 PUSH1 0x0 ADD PUSH1 0x0 SWAP1 SLOAD SWAP1 PUSH2 0x100 EXP SWAP1 DIV PUSH20 0xFFFFFFFFFFFFFFFFFFFFFFFFFFFFFFFFFFFFFFFF AND DUP4 PUSH1 0x1 ADD PUSH1 0x0 SWAP1 SLOAD SWAP1 PUSH2 0x100 EXP SWAP1 DIV PUSH20 0xFFFFFFFFFFFFFFFFFFFFFFFFFFFFFFFFFFFFFFFF AND DUP5 PUSH1 0x2 ADD SLOAD DUP6 PUSH1 0x3 ADD PUSH1 0x0 SWAP1 SLOAD SWAP1 PUSH2 0x100 EXP SWAP1 DIV PUSH1 0xFF AND PUSH1 0x40 MLOAD PUSH2 0x670 SWAP6 SWAP5 SWAP4 SWAP3 SWAP2 SWAP1 PUSH2 0x96A JUMP JUMPDEST PUSH1 0x40 MLOAD DUP1 SWAP2 SUB SWAP1 LOG1 POP POP JUMP JUMPDEST PUSH1 0x0 DUP1 REVERT JUMPDEST PUSH1 0x0 DUP2 SWAP1 POP SWAP2 SWAP1 POP JUMP JUMPDEST PUSH2 0x694 DUP2 PUSH2 0x681 JUMP JUMPDEST DUP2 EQ PUSH2 0x69F JUMPI PUSH1 0x0 DUP1 REVERT JUMPDEST POP JUMP JUMPDEST PUSH1 0x0 DUP2 CALLDATALOAD SWAP1 POP PUSH2 0x6B1 DUP2 PUSH2 0x68B JUMP JUMPDEST SWAP3 SWAP2 POP POP JUMP JUMPDEST PUSH1 0x0 PUSH1 0x20 DUP3 DUP5 SUB SLT ISZERO PUSH2 0x6CD JUMPI PUSH2 0x6CC PUSH2 0x67C JUMP JUMPDEST JUMPDEST PUSH1 0x0 PUSH2 0x6DB DUP5 DUP3 DUP6 ADD PUSH2 0x6A2 JUMP JUMPDEST SWAP2 POP POP SWAP3 SWAP2 POP POP JUMP JUMPDEST PUSH1 0x0 PUSH20 0xFFFFFFFFFFFFFFFFFFFFFFFFFFFFFFFFFFFFFFFF DUP3 AND SWAP1 POP SWAP2 SWAP1 POP JUMP JUMPDEST PUSH1 0x0 PUSH2 0x70F DUP3 PUSH2 0x6E4 JUMP JUMPDEST SWAP1 POP SWAP2 SWAP1 POP JUMP JUMPDEST PUSH2 0x71F DUP2 PUSH2 0x704 JUMP JUMPDEST DUP3 MSTORE POP POP JUMP JUMPDEST PUSH1 0x0 PUSH2 0x730 DUP3 PUSH2 0x6E4 JUMP JUMPDEST SWAP1 POP SWAP2 SWAP1 POP JUMP JUMPDEST PUSH2 0x740 DUP2 PUSH2 0x725 JUMP JUMPDEST DUP3 MSTORE POP POP JUMP JUMPDEST PUSH2 0x74F DUP2 PUSH2 0x681 JUMP JUMPDEST DUP3 MSTORE POP POP JUMP JUMPDEST PUSH1 0x0 DUP2 ISZERO ISZERO SWAP1 POP SWAP2 SWAP1 POP JUMP JUMPDEST PUSH2 0x76A DUP2 PUSH2 0x755 JUMP JUMPDEST DUP3 MSTORE POP POP JUMP JUMPDEST PUSH1 0x0 PUSH1 0xA0 DUP3 ADD SWAP1 POP PUSH2 0x785 PUSH1 0x0 DUP4 ADD DUP9 PUSH2 0x716 JUMP JUMPDEST PUSH2 0x792 PUSH1 0x20 DUP4 ADD DUP8 PUSH2 0x737 JUMP JUMPDEST PUSH2 0x79F PUSH1 0x40 DUP4 ADD DUP7 PUSH2 0x746 JUMP JUMPDEST PUSH2 0x7AC PUSH1 0x60 DUP4 ADD DUP6 PUSH2 0x761 JUMP JUMPDEST PUSH2 0x7B9 PUSH1 0x80 DUP4 ADD DUP5 PUSH2 0x761 JUMP JUMPDEST SWAP7 SWAP6 POP POP POP POP POP POP JUMP JUMPDEST PUSH1 0x0 PUSH1 0x20 DUP3 ADD SWAP1 POP PUSH2 0x7D8 PUSH1 0x0 DUP4 ADD DUP5 PUSH2 0x746 JUMP JUMPDEST SWAP3 SWAP2 POP POP JUMP JUMPDEST PUSH2 0x7E7 DUP2 PUSH2 0x725 JUMP JUMPDEST DUP2 EQ PUSH2 0x7F2 JUMPI PUSH1 0x0 DUP1 REVERT JUMPDEST POP JUMP JUMPDEST PUSH1 0x0 DUP2 CALLDATALOAD SWAP1 POP PUSH2 0x804 DUP2 PUSH2 0x7DE JUMP JUMPDEST SWAP3 SWAP2 POP POP JUMP JUMPDEST PUSH2 0x813 DUP2 PUSH2 0x755 JUMP JUMPDEST DUP2 EQ PUSH2 0x81E JUMPI PUSH1 0x0 DUP1 REVERT JUMPDEST POP JUMP JUMPDEST PUSH1 0x0 DUP2 CALLDATALOAD SWAP1 POP PUSH2 0x830 DUP2 PUSH2 0x80A JUMP JUMPDEST SWAP3 SWAP2 POP POP JUMP JUMPDEST PUSH1 0x0 DUP1 PUSH1 0x40 DUP4 DUP6 SUB SLT ISZERO PUSH2 0x84D JUMPI PUSH2 0x84C PUSH2 0x67C JUMP JUMPDEST JUMPDEST PUSH1 0x0 PUSH2 0x85B DUP6 DUP3 DUP7 ADD PUSH2 0x7F5 JUMP JUMPDEST SWAP3 POP POP PUSH1 0x20 PUSH2 0x86C DUP6 DUP3 DUP7 ADD PUSH2 0x821 JUMP JUMPDEST SWAP2 POP POP SWAP3 POP SWAP3 SWAP1 POP JUMP JUMPDEST PUSH1 0x0 DUP3 DUP3 MSTORE PUSH1 0x20 DUP3 ADD SWAP1 POP SWAP3 SWAP2 POP POP JUMP JUMPDEST PUSH32 0x496E76616C6964207061796D656E7420616D6F756E7400000000000000000000 PUSH1 0x0 DUP3 ADD MSTORE POP JUMP JUMPDEST PUSH1 0x0 PUSH2 0x8BD PUSH1 0x16 DUP4 PUSH2 0x876 JUMP JUMPDEST SWAP2 POP PUSH2 0x8C8 DUP3 PUSH2 0x887 JUMP JUMPDEST PUSH1 0x20 DUP3 ADD SWAP1 POP SWAP2 SWAP1 POP JUMP JUMPDEST PUSH1 0x0 PUSH1 0x20 DUP3 ADD SWAP1 POP DUP2 DUP2 SUB PUSH1 0x0 DUP4 ADD MSTORE PUSH2 0x8EC DUP2 PUSH2 0x8B0 JUMP JUMPDEST SWAP1 POP SWAP2 SWAP1 POP JUMP JUMPDEST PUSH32 0x4E487B7100000000000000000000000000000000000000000000000000000000 PUSH1 0x0 MSTORE PUSH1 0x11 PUSH1 0x4 MSTORE PUSH1 0x24 PUSH1 0x0 REVERT JUMPDEST PUSH1 0x0 PUSH2 0x92D DUP3 PUSH2 0x681 JUMP JUMPDEST SWAP2 POP PUSH32 0xFFFFFFFFFFFFFFFFFFFFFFFFFFFFFFFFFFFFFFFFFFFFFFFFFFFFFFFFFFFFFFFF DUP3 SUB PUSH2 0x95F JUMPI PUSH2 0x95E PUSH2 0x8F3 JUMP JUMPDEST JUMPDEST PUSH1 0x1 DUP3 ADD SWAP1 POP SWAP2 SWAP1 POP JUMP JUMPDEST PUSH1 0x0 PUSH1 0xA0 DUP3 ADD SWAP1 POP PUSH2 0x97F PUSH1 0x0 DUP4 ADD DUP9 PUSH2 0x746 JUMP JUMPDEST PUSH2 0x98C PUSH1 0x20 DUP4 ADD DUP8 PUSH2 0x716 JUMP JUMPDEST PUSH2 0x999 PUSH1 0x40 DUP4 ADD DUP7 PUSH2 0x737 JUMP JUMPDEST PUSH2 0x9A6 PUSH1 0x60 DUP4 ADD DUP6 PUSH2 0x746 JUMP JUMPDEST PUSH2 0x9B3 PUSH1 0x80 DUP4 ADD DUP5 PUSH2 0x761 JUMP JUMPDEST SWAP7 SWAP6 POP POP POP POP POP POP JUMP JUMPDEST PUSH32 0x496E76616C6964207472616E73616374696F6E20494400000000000000000000 PUSH1 0x0 DUP3 ADD MSTORE POP JUMP JUMPDEST PUSH1 0x0 PUSH2 0x9F3 PUSH1 0x16 DUP4 PUSH2 0x876 JUMP JUMPDEST SWAP2 POP PUSH2 0x9FE DUP3 PUSH2 0x9BD JUMP JUMPDEST PUSH1 0x20 DUP3 ADD SWAP1 POP SWAP2 SWAP1 POP JUMP JUMPDEST PUSH1 0x0 PUSH1 0x20 DUP3 ADD SWAP1 POP DUP2 DUP2 SUB PUSH1 0x0 DUP4 ADD MSTORE PUSH2 0xA22 DUP2 PUSH2 0x9E6 JUMP JUMPDEST SWAP1 POP SWAP2 SWAP1 POP JUMP JUMPDEST PUSH32 0x5472616E73616374696F6E20697320616C726561647920636F6D706C65746564 PUSH1 0x0 DUP3 ADD MSTORE POP JUMP JUMPDEST PUSH1 0x0 PUSH2 0xA5F PUSH1 0x20 DUP4 PUSH2 0x876 JUMP JUMPDEST SWAP2 POP PUSH2 0xA6A DUP3 PUSH2 0xA29 JUMP JUMPDEST PUSH1 0x20 DUP3 ADD SWAP1 POP SWAP2 SWAP1 POP JUMP JUMPDEST PUSH1 0x0 PUSH1 0x20 DUP3 ADD SWAP1 POP DUP2 DUP2 SUB PUSH1 0x0 DUP4 ADD MSTORE PUSH2 0xA8E DUP2 PUSH2 0xA52 JUMP JUMPDEST SWAP1 POP SWAP2 SWAP1 POP JUMP JUMPDEST PUSH32 0x556E617574686F72697A656420726563697069656E7400000000000000000000 PUSH1 0x0 DUP3 ADD MSTORE POP JUMP JUMPDEST PUSH1 0x0 PUSH2 0xACB PUSH1 0x16 DUP4 PUSH2 0x876 JUMP JUMPDEST SWAP2 POP PUSH2 0xAD6 DUP3 PUSH2 0xA95 JUMP JUMPDEST PUSH1 0x20 DUP3 ADD SWAP1 POP SWAP2 SWAP1 POP JUMP JUMPDEST PUSH1 0x0 PUSH1 0x20 DUP3 ADD SWAP1 POP DUP2 DUP2 SUB PUSH1 0x0 DUP4 ADD MSTORE PUSH2 0xAFA DUP2 PUSH2 0xABE JUMP JUMPDEST SWAP1 POP SWAP2 SWAP1 POP JUMP INVALID LOG2 PUSH5 0x6970667358 0x22 SLT KECCAK256 0xB5 SHR CALLDATACOPY 0x27 0x23 PUSH25 0x4ECEFDEF0C4A56141CAB4463EA4B0756ACB6C5FCF3DA44F304 SWAP12 PUSH5 0x736F6C6343 STOP ADDMOD SLT STOP CALLER "
				},
				"gasEstimates": {
					"creation": {
						"codeDepositCost": "574200",
						"executionCost": "606",
						"totalCost": "574806"
					},
					"external": {
						"receivePayment(uint256)": "infinite",
						"sendPayment(address,bool)": "infinite",
						"transactionCount()": "2429",
						"transactions(uint256)": "infinite"
					}
				},
				"methodIdentifiers": {
					"receivePayment(uint256)": "e2eab483",
					"sendPayment(address,bool)": "d13bba1d",
					"transactionCount()": "b77bf600",
					"transactions(uint256)": "9ace38c2"
				}
			},
			"storageLayout": {
				"storage": [
					{
						"astId": 17,
						"contract": "celoWallet.sol:CrossBorderPayments",
						"label": "transactions",
						"offset": 0,
						"slot": "0",
						"type": "t_mapping(t_uint256,t_struct(Transaction)12_storage)"
					},
					{
						"astId": 19,
						"contract": "celoWallet.sol:CrossBorderPayments",
						"label": "transactionCount",
						"offset": 0,
						"slot": "1",
						"type": "t_uint256"
					}
				],
				"types": {
					"t_address": {
						"encoding": "inplace",
						"label": "address",
						"numberOfBytes": "20"
					},
					"t_address_payable": {
						"encoding": "inplace",
						"label": "address payable",
						"numberOfBytes": "20"
					},
					"t_bool": {
						"encoding": "inplace",
						"label": "bool",
						"numberOfBytes": "1"
					},
					"t_mapping(t_uint256,t_struct(Transaction)12_storage)": {
						"encoding": "mapping",
						"key": "t_uint256",
						"label": "mapping(uint256 => struct CrossBorderPayments.Transaction)",
						"numberOfBytes": "32",
						"value": "t_struct(Transaction)12_storage"
					},
					"t_struct(Transaction)12_storage": {
						"encoding": "inplace",
						"label": "struct CrossBorderPayments.Transaction",
						"members": [
							{
								"astId": 3,
								"contract": "celoWallet.sol:CrossBorderPayments",
								"label": "sender",
								"offset": 0,
								"slot": "0",
								"type": "t_address"
							},
							{
								"astId": 5,
								"contract": "celoWallet.sol:CrossBorderPayments",
								"label": "recipient",
								"offset": 0,
								"slot": "1",
								"type": "t_address_payable"
							},
							{
								"astId": 7,
								"contract": "celoWallet.sol:CrossBorderPayments",
								"label": "amount",
								"offset": 0,
								"slot": "2",
								"type": "t_uint256"
							},
							{
								"astId": 9,
								"contract": "celoWallet.sol:CrossBorderPayments",
								"label": "isRemittance",
								"offset": 0,
								"slot": "3",
								"type": "t_bool"
							},
							{
								"astId": 11,
								"contract": "celoWallet.sol:CrossBorderPayments",
								"label": "isCompleted",
								"offset": 1,
								"slot": "3",
								"type": "t_bool"
							}
						],
						"numberOfBytes": "128"
					},
					"t_uint256": {
						"encoding": "inplace",
						"label": "uint256",
						"numberOfBytes": "32"
					}
				}
			},
			"userdoc": {
				"kind": "user",
				"methods": {},
				"version": 1
			}
		}
	}
}